{
    "_format": "hh-sol-artifact-1",
    "contractName": "CrossChainLayerToken",
    "sourceName": "contracts/L2/CrossChainLayerToken.sol",
    "abi": [
        {
            "inputs": [
                {
                    "internalType": "address",
                    "name": "settingsAddress",
                    "type": "address"
                }
            ],
            "stateMutability": "nonpayable",
            "type": "constructor"
        },
        {
            "inputs": [
                {
                    "internalType": "address",
                    "name": "spender",
                    "type": "address"
                },
                {
                    "internalType": "uint256",
                    "name": "allowance",
                    "type": "uint256"
                },
                {
                    "internalType": "uint256",
                    "name": "needed",
                    "type": "uint256"
                }
            ],
            "name": "ERC20InsufficientAllowance",
            "type": "error"
        },
        {
            "inputs": [
                {
                    "internalType": "address",
                    "name": "sender",
                    "type": "address"
                },
                {
                    "internalType": "uint256",
                    "name": "balance",
                    "type": "uint256"
                },
                {
                    "internalType": "uint256",
                    "name": "needed",
                    "type": "uint256"
                }
            ],
            "name": "ERC20InsufficientBalance",
            "type": "error"
        },
        {
            "inputs": [
                {
                    "internalType": "address",
                    "name": "approver",
                    "type": "address"
                }
            ],
            "name": "ERC20InvalidApprover",
            "type": "error"
        },
        {
            "inputs": [
                {
                    "internalType": "address",
                    "name": "receiver",
                    "type": "address"
                }
            ],
            "name": "ERC20InvalidReceiver",
            "type": "error"
        },
        {
            "inputs": [
                {
                    "internalType": "address",
                    "name": "sender",
                    "type": "address"
                }
            ],
            "name": "ERC20InvalidSender",
            "type": "error"
        },
        {
            "inputs": [
                {
                    "internalType": "address",
                    "name": "spender",
                    "type": "address"
                }
            ],
            "name": "ERC20InvalidSpender",
            "type": "error"
        },
        {
            "inputs": [],
            "name": "InvalidInitialization",
            "type": "error"
        },
        {
            "inputs": [],
            "name": "NotInitializing",
            "type": "error"
        },
        {
            "anonymous": false,
            "inputs": [
                {
                    "indexed": true,
                    "internalType": "address",
                    "name": "owner",
                    "type": "address"
                },
                {
                    "indexed": true,
                    "internalType": "address",
                    "name": "spender",
                    "type": "address"
                },
                {
                    "indexed": false,
                    "internalType": "uint256",
                    "name": "value",
                    "type": "uint256"
                }
            ],
            "name": "Approval",
            "type": "event"
        },
        {
            "anonymous": false,
            "inputs": [
                {
                    "indexed": false,
                    "internalType": "uint64",
                    "name": "version",
                    "type": "uint64"
                }
            ],
            "name": "Initialized",
            "type": "event"
        },
        {
            "anonymous": false,
            "inputs": [
                {
                    "indexed": true,
                    "internalType": "address",
                    "name": "from",
                    "type": "address"
                },
                {
                    "indexed": true,
                    "internalType": "address",
                    "name": "to",
                    "type": "address"
                },
                {
                    "indexed": false,
                    "internalType": "uint256",
                    "name": "value",
                    "type": "uint256"
                }
            ],
            "name": "Transfer",
            "type": "event"
        },
        {
            "inputs": [
                {
                    "internalType": "address",
                    "name": "owner",
                    "type": "address"
                },
                {
                    "internalType": "address",
                    "name": "spender",
                    "type": "address"
                }
            ],
            "name": "allowance",
            "outputs": [
                {
                    "internalType": "uint256",
                    "name": "",
                    "type": "uint256"
                }
            ],
            "stateMutability": "view",
            "type": "function"
        },
        {
            "inputs": [
                {
                    "internalType": "address",
                    "name": "spender",
                    "type": "address"
                },
                {
                    "internalType": "uint256",
                    "name": "value",
                    "type": "uint256"
                }
            ],
            "name": "approve",
            "outputs": [
                {
                    "internalType": "bool",
                    "name": "",
                    "type": "bool"
                }
            ],
            "stateMutability": "nonpayable",
            "type": "function"
        },
        {
            "inputs": [
                {
                    "internalType": "address",
                    "name": "account",
                    "type": "address"
                }
            ],
            "name": "balanceOf",
            "outputs": [
                {
                    "internalType": "uint256",
                    "name": "",
                    "type": "uint256"
                }
            ],
            "stateMutability": "view",
            "type": "function"
        },
        {
            "inputs": [
                {
                    "internalType": "address",
                    "name": "from",
                    "type": "address"
                },
                {
                    "internalType": "uint256",
                    "name": "amount",
                    "type": "uint256"
                }
            ],
            "name": "burn",
            "outputs": [],
            "stateMutability": "nonpayable",
            "type": "function"
        },
        {
            "inputs": [],
            "name": "decimals",
            "outputs": [
                {
                    "internalType": "uint8",
                    "name": "",
                    "type": "uint8"
                }
            ],
            "stateMutability": "view",
            "type": "function"
        },
        {
            "inputs": [],
            "name": "getCrossChainLayerAddress",
            "outputs": [
                {
                    "internalType": "address",
                    "name": "",
                    "type": "address"
                }
            ],
            "stateMutability": "view",
            "type": "function"
        },
        {
            "inputs": [],
            "name": "getInfo",
            "outputs": [
                {
                    "components": [
                        {
                            "internalType": "string",
                            "name": "name",
                            "type": "string"
                        },
                        {
                            "internalType": "string",
                            "name": "symbol",
                            "type": "string"
                        },
                        {
                            "internalType": "uint8",
                            "name": "decimals",
                            "type": "uint8"
                        },
                        {
                            "internalType": "string",
                            "name": "description",
                            "type": "string"
                        },
                        {
                            "internalType": "string",
                            "name": "image",
                            "type": "string"
                        },
                        {
                            "internalType": "string",
                            "name": "l1Address",
                            "type": "string"
                        }
                    ],
                    "internalType": "struct TokenInfo",
                    "name": "",
                    "type": "tuple"
                }
            ],
            "stateMutability": "view",
            "type": "function"
        },
        {
            "inputs": [
                {
                    "internalType": "string",
                    "name": "name",
                    "type": "string"
                },
                {
                    "internalType": "string",
                    "name": "symbol",
                    "type": "string"
                },
                {
                    "internalType": "uint8",
                    "name": "decimals_",
                    "type": "uint8"
                },
                {
                    "internalType": "string",
                    "name": "description",
                    "type": "string"
                },
                {
                    "internalType": "string",
                    "name": "image",
                    "type": "string"
                },
                {
                    "internalType": "string",
                    "name": "l1Address_",
                    "type": "string"
                }
            ],
            "name": "initialize",
            "outputs": [],
            "stateMutability": "nonpayable",
            "type": "function"
        },
        {
            "inputs": [
                {
                    "internalType": "address",
                    "name": "to",
                    "type": "address"
                },
                {
                    "internalType": "uint256",
                    "name": "amount",
                    "type": "uint256"
                }
            ],
            "name": "mint",
            "outputs": [],
            "stateMutability": "nonpayable",
            "type": "function"
        },
        {
            "inputs": [],
            "name": "name",
            "outputs": [
                {
                    "internalType": "string",
                    "name": "",
                    "type": "string"
                }
            ],
            "stateMutability": "view",
            "type": "function"
        },
        {
            "inputs": [],
            "name": "symbol",
            "outputs": [
                {
                    "internalType": "string",
                    "name": "",
                    "type": "string"
                }
            ],
            "stateMutability": "view",
            "type": "function"
        },
        {
            "inputs": [],
            "name": "totalSupply",
            "outputs": [
                {
                    "internalType": "uint256",
                    "name": "",
                    "type": "uint256"
                }
            ],
            "stateMutability": "view",
            "type": "function"
        },
        {
            "inputs": [
                {
                    "internalType": "address",
                    "name": "to",
                    "type": "address"
                },
                {
                    "internalType": "uint256",
                    "name": "value",
                    "type": "uint256"
                }
            ],
            "name": "transfer",
            "outputs": [
                {
                    "internalType": "bool",
                    "name": "",
                    "type": "bool"
                }
            ],
            "stateMutability": "nonpayable",
            "type": "function"
        },
        {
            "inputs": [
                {
                    "internalType": "address",
                    "name": "from",
                    "type": "address"
                },
                {
                    "internalType": "address",
                    "name": "to",
                    "type": "address"
                },
                {
                    "internalType": "uint256",
                    "name": "value",
                    "type": "uint256"
                }
            ],
            "name": "transferFrom",
            "outputs": [
                {
                    "internalType": "bool",
                    "name": "",
                    "type": "bool"
                }
            ],
            "stateMutability": "nonpayable",
            "type": "function"
        }
    ],
    "bytecode": "0x60a060405234801561001057600080fd5b506040516114a33803806114a383398101604081905261002f91610161565b6001600160a01b03811660805260006100466100cf565b9050336001600160a01b038216146100c857604080517f756e617574686f72697a656420286f6e6c792063636c293a200000000000000060208201523360601b6001600160601b03191660398201528151602d818303018152604d82019283905262461bcd60e51b9092526100bf908290605101610191565b60405180910390fd5b50506101e0565b60805160405163ad39965d60e01b81527ffe7a664f6e0c3521ff1c6c504d38ef3e9f443169aed5f833bbef58ef2647083b60048201526000916001600160a01b03169063ad39965d90602401602060405180830381865afa158015610138573d6000803e3d6000fd5b505050506040513d601f19601f8201168201806040525081019061015c9190610161565b905090565b60006020828403121561017357600080fd5b81516001600160a01b038116811461018a57600080fd5b9392505050565b60006020808352835180602085015260005b818110156101bf578581018301518582016040015282016101a3565b506000604082860101526040601f19601f8301168501019250505092915050565b6080516112a86101fb600039600061083201526112a86000f3fe608060405234801561001057600080fd5b50600436106100ea5760003560e01c8063704744121161008c5780639dc29fac116100665780639dc29fac14610204578063a9059cbb14610217578063c3eea1461461022a578063dd62ed3e1461024a57600080fd5b806370474412146101b357806370a08231146101c657806395d89b41146101fc57600080fd5b806323b872dd116100c857806323b872dd14610161578063313ce5671461017457806340c10f19146101895780635a9b0b891461019e57600080fd5b806306fdde03146100ef578063095ea7b31461010d57806318160ddd14610130575b600080fd5b6100f761025d565b6040516101049190610d50565b60405180910390f35b61012061011b366004610d82565b610320565b6040519015158152602001610104565b7f52c63247e1f47db19d5ce0460030c497f067ca4cebf71ba98eeadabe20bace02545b604051908152602001610104565b61012061016f366004610dae565b61033a565b60005460405160ff9091168152602001610104565b61019c610197366004610d82565b61035e565b005b6101a66103d0565b6040516101049190610def565b61019c6101c1366004610f50565b6105f8565b6101536101d4366004611031565b6001600160a01b03166000908152600080516020611253833981519152602052604090205490565b6100f7610774565b61019c610212366004610d82565b6107b3565b610120610225366004610d82565b6107ec565b6102326107fa565b6040516001600160a01b039091168152602001610104565b61015361025836600461104e565b6108aa565b7f52c63247e1f47db19d5ce0460030c497f067ca4cebf71ba98eeadabe20bace0380546060916000805160206112538339815191529161029c90611087565b80601f01602080910402602001604051908101604052809291908181526020018280546102c890611087565b80156103155780601f106102ea57610100808354040283529160200191610315565b820191906000526020600020905b8154815290600101906020018083116102f857829003601f168201915b505050505091505090565b60003361032e8185856108f4565b60019150505b92915050565b600033610348858285610901565b610353858585610967565b506001949350505050565b60006103686107fa565b9050336001600160a01b038216146103c15760003360405160200161038d91906110c1565b60405160208183030381529060405290508060405162461bcd60e51b81526004016103b89190610d50565b60405180910390fd5b6103cb83836109c6565b505050565b61040c6040518060c001604052806060815260200160608152602001600060ff1681526020016060815260200160608152602001606081525090565b6040518060c0016040528061041f61025d565b815260200161042c610774565b815260200161043d60005460ff1690565b60ff1681526020016001805461045290611087565b80601f016020809104026020016040519081016040528092919081815260200182805461047e90611087565b80156104cb5780601f106104a0576101008083540402835291602001916104cb565b820191906000526020600020905b8154815290600101906020018083116104ae57829003601f168201915b50505050508152602001600280546104e290611087565b80601f016020809104026020016040519081016040528092919081815260200182805461050e90611087565b801561055b5780601f106105305761010080835404028352916020019161055b565b820191906000526020600020905b81548152906001019060200180831161053e57829003601f168201915b505050505081526020016003805461057290611087565b80601f016020809104026020016040519081016040528092919081815260200182805461059e90611087565b80156105eb5780601f106105c0576101008083540402835291602001916105eb565b820191906000526020600020905b8154815290600101906020018083116105ce57829003601f168201915b5050505050815250905090565b7ff0c57e16840df040f15088dc2f81fe391c3923bec73e23a9662efc9c229c6a008054600160401b810460ff16159067ffffffffffffffff1660008115801561063e5750825b905060008267ffffffffffffffff16600114801561065b5750303b155b905081158015610669575080155b156106875760405163f92ee8a960e01b815260040160405180910390fd5b845467ffffffffffffffff1916600117855583156106b157845460ff60401b1916600160401b1785555b60006106bb6107fa565b9050336001600160a01b038216146106e05760003360405160200161038d91906110c1565b6106ea8c8c610a00565b6000805460ff191660ff8c1617905560016107058a82611154565b5060026107128982611154565b50600361071f8882611154565b5050831561076757845460ff60401b19168555604051600181527fc7f505b2f371ae2175ee4913f4499e1f2633a7b5936321eed1cdaeb6115181d29060200160405180910390a15b5050505050505050505050565b7f52c63247e1f47db19d5ce0460030c497f067ca4cebf71ba98eeadabe20bace0480546060916000805160206112538339815191529161029c90611087565b60006107bd6107fa565b9050336001600160a01b038216146107e25760003360405160200161038d91906110c1565b6103cb8383610a12565b60003361032e818585610967565b60405163ad39965d60e01b81527ffe7a664f6e0c3521ff1c6c504d38ef3e9f443169aed5f833bbef58ef2647083b60048201526000907f00000000000000000000000000000000000000000000000000000000000000006001600160a01b03169063ad39965d90602401602060405180830381865afa158015610881573d6000803e3d6000fd5b505050506040513d601f19601f820116820180604052508101906108a59190611214565b905090565b6001600160a01b0391821660009081527f52c63247e1f47db19d5ce0460030c497f067ca4cebf71ba98eeadabe20bace016020908152604080832093909416825291909152205490565b6103cb8383836001610a48565b600061090d84846108aa565b90506000198114610961578181101561095257604051637dc7a0d960e11b81526001600160a01b038416600482015260248101829052604481018390526064016103b8565b61096184848484036000610a48565b50505050565b6001600160a01b03831661099157604051634b637e8f60e11b8152600060048201526024016103b8565b6001600160a01b0382166109bb5760405163ec442f0560e01b8152600060048201526024016103b8565b6103cb838383610b30565b6001600160a01b0382166109f05760405163ec442f0560e01b8152600060048201526024016103b8565b6109fc60008383610b30565b5050565b610a08610c6e565b6109fc8282610cb9565b6001600160a01b038216610a3c57604051634b637e8f60e11b8152600060048201526024016103b8565b6109fc82600083610b30565b6000805160206112538339815191526001600160a01b038516610a815760405163e602df0560e01b8152600060048201526024016103b8565b6001600160a01b038416610aab57604051634a1406b160e11b8152600060048201526024016103b8565b6001600160a01b03808616600090815260018301602090815260408083209388168352929052208390558115610b2957836001600160a01b0316856001600160a01b03167f8c5be1e5ebec7d5bd14f71427d1e84f3dd0314c0f7b2291e5b200ac8c7c3b92585604051610b2091815260200190565b60405180910390a35b5050505050565b6000805160206112538339815191526001600160a01b038416610b6c5781816002016000828254610b619190611231565b90915550610bde9050565b6001600160a01b03841660009081526020829052604090205482811015610bbf5760405163391434e360e21b81526001600160a01b038616600482015260248101829052604481018490526064016103b8565b6001600160a01b03851660009081526020839052604090209083900390555b6001600160a01b038316610bfc576002810180548390039055610c1b565b6001600160a01b03831660009081526020829052604090208054830190555b826001600160a01b0316846001600160a01b03167fddf252ad1be2c89b69c2b068fc378daa952ba7f163c4a11628f55a4df523b3ef84604051610c6091815260200190565b60405180910390a350505050565b7ff0c57e16840df040f15088dc2f81fe391c3923bec73e23a9662efc9c229c6a0054600160401b900460ff16610cb757604051631afcd79f60e31b815260040160405180910390fd5b565b610cc1610c6e565b6000805160206112538339815191527f52c63247e1f47db19d5ce0460030c497f067ca4cebf71ba98eeadabe20bace03610cfb8482611154565b50600481016109618382611154565b6000815180845260005b81811015610d3057602081850181015186830182015201610d14565b506000602082860101526020601f19601f83011685010191505092915050565b602081526000610d636020830184610d0a565b9392505050565b6001600160a01b0381168114610d7f57600080fd5b50565b60008060408385031215610d9557600080fd5b8235610da081610d6a565b946020939093013593505050565b600080600060608486031215610dc357600080fd5b8335610dce81610d6a565b92506020840135610dde81610d6a565b929592945050506040919091013590565b602081526000825160c06020840152610e0b60e0840182610d0a565b90506020840151601f1980858403016040860152610e298383610d0a565b925060ff60408701511660608601526060860151915080858403016080860152610e538383610d0a565b925060808601519150808584030160a0860152610e708383610d0a565b925060a08601519150808584030160c086015250610e8e8282610d0a565b95945050505050565b634e487b7160e01b600052604160045260246000fd5b600082601f830112610ebe57600080fd5b813567ffffffffffffffff80821115610ed957610ed9610e97565b604051601f8301601f19908116603f01168101908282118183101715610f0157610f01610e97565b81604052838152866020858801011115610f1a57600080fd5b836020870160208301376000602085830101528094505050505092915050565b803560ff81168114610f4b57600080fd5b919050565b60008060008060008060c08789031215610f6957600080fd5b863567ffffffffffffffff80821115610f8157600080fd5b610f8d8a838b01610ead565b97506020890135915080821115610fa357600080fd5b610faf8a838b01610ead565b9650610fbd60408a01610f3a565b95506060890135915080821115610fd357600080fd5b610fdf8a838b01610ead565b94506080890135915080821115610ff557600080fd5b6110018a838b01610ead565b935060a089013591508082111561101757600080fd5b5061102489828a01610ead565b9150509295509295509295565b60006020828403121561104357600080fd5b8135610d6381610d6a565b6000806040838503121561106157600080fd5b823561106c81610d6a565b9150602083013561107c81610d6a565b809150509250929050565b600181811c9082168061109b57607f821691505b6020821081036110bb57634e487b7160e01b600052602260045260246000fd5b50919050565b7f756e617574686f72697a656420286f6e6c792063636c293a2000000000000000815260609190911b6bffffffffffffffffffffffff19166019820152602d0190565b601f8211156103cb576000816000526020600020601f850160051c8101602086101561112d5750805b601f850160051c820191505b8181101561114c57828155600101611139565b505050505050565b815167ffffffffffffffff81111561116e5761116e610e97565b6111828161117c8454611087565b84611104565b602080601f8311600181146111b7576000841561119f5750858301515b600019600386901b1c1916600185901b17855561114c565b600085815260208120601f198616915b828110156111e6578886015182559484019460019091019084016111c7565b50858210156112045787850151600019600388901b60f8161c191681555b5050505050600190811b01905550565b60006020828403121561122657600080fd5b8151610d6381610d6a565b8082018082111561033457634e487b7160e01b600052601160045260246000fdfe52c63247e1f47db19d5ce0460030c497f067ca4cebf71ba98eeadabe20bace00a26469706673582212208f83aa19e20a943cb5f1c9711d573183843ba9136de6adde3236cff4838d0f9164736f6c63430008190033",
    "linkReferences": {},
    "deployedLinkReferences": {}
}